{
  "abi": [
    {
      "anonymous": false,
      "inputs": [
        {
          "indexed": true,
          "internalType": "address",
          "name": "projectOwner",
          "type": "address"
        },
        {
          "indexed": false,
          "internalType": "uint256",
          "name": "projId",
          "type": "uint256"
        },
        {
          "indexed": false,
          "internalType": "uint256",
          "name": "maximumBudget",
          "type": "uint256"
        }
      ],
      "name": "AuditRequested",
      "type": "event"
    },
    {
      "anonymous": false,
      "inputs": [
        {
          "indexed": true,
          "internalType": "address",
          "name": "projectOwner",
          "type": "address"
        },
        {
          "indexed": true,
          "internalType": "address",
          "name": "auditor",
          "type": "address"
        },
        {
          "indexed": false,
          "internalType": "uint256",
          "name": "projId",
          "type": "uint256"
        },
        {
          "indexed": false,
          "internalType": "uint256",
          "name": "priceOfAudit",
          "type": "uint256"
        }
      ],
      "name": "AuditorHired",
      "type": "event"
    },
    {
      "anonymous": false,
      "inputs": [
        {
          "indexed": true,
          "internalType": "address",
          "name": "auditor",
          "type": "address"
        },
        {
          "indexed": false,
          "internalType": "uint256",
          "name": "projId",
          "type": "uint256"
        },
        {
          "indexed": false,
          "internalType": "uint256",
          "name": "price",
          "type": "uint256"
        }
      ],
      "name": "ProposalSubmitted",
      "type": "event"
    },
    {
      "inputs": [
        {
          "internalType": "uint256",
          "name": "projectId_",
          "type": "uint256"
        }
      ],
      "name": "cancelAudit",
      "outputs": [],
      "stateMutability": "nonpayable",
      "type": "function"
    },
    {
      "inputs": [
        {
          "internalType": "uint256",
          "name": "projectId_",
          "type": "uint256"
        },
        {
          "internalType": "address",
          "name": "auditorAddress",
          "type": "address"
        }
      ],
      "name": "hireAuditor",
      "outputs": [],
      "stateMutability": "payable",
      "type": "function"
    },
    {
      "inputs": [],
      "name": "projectId",
      "outputs": [
        {
          "internalType": "uint256",
          "name": "",
          "type": "uint256"
        }
      ],
      "stateMutability": "view",
      "type": "function"
    },
    {
      "inputs": [
        {
          "internalType": "uint256",
          "name": "",
          "type": "uint256"
        }
      ],
      "name": "projects",
      "outputs": [
        {
          "internalType": "address",
          "name": "owner",
          "type": "address"
        },
        {
          "internalType": "uint256",
          "name": "maxBudget",
          "type": "uint256"
        },
        {
          "internalType": "address",
          "name": "token",
          "type": "address"
        },
        {
          "internalType": "string",
          "name": "info",
          "type": "string"
        },
        {
          "internalType": "uint256",
          "name": "sloc",
          "type": "uint256"
        },
        {
          "internalType": "address",
          "name": "auditor",
          "type": "address"
        },
        {
          "internalType": "bool",
          "name": "finished",
          "type": "bool"
        }
      ],
      "stateMutability": "view",
      "type": "function"
    },
    {
      "inputs": [
        {
          "internalType": "uint256",
          "name": "projectId_",
          "type": "uint256"
        },
        {
          "internalType": "uint256",
          "name": "yourPrice_",
          "type": "uint256"
        }
      ],
      "name": "propose",
      "outputs": [],
      "stateMutability": "nonpayable",
      "type": "function"
    },
    {
      "inputs": [
        {
          "internalType": "uint256",
          "name": "maxBudget_",
          "type": "uint256"
        },
        {
          "internalType": "string",
          "name": "info_",
          "type": "string"
        },
        {
          "internalType": "address",
          "name": "token_",
          "type": "address"
        },
        {
          "internalType": "uint256",
          "name": "sloc_",
          "type": "uint256"
        }
      ],
      "name": "requestAudit",
      "outputs": [],
      "stateMutability": "nonpayable",
      "type": "function"
    }
  ],
  "bytecode": {
    "object": "0x608060405234801561001057600080fd5b50610e74806100206000396000f3fe6080604052600436106100555760003560e01c8063107046bd1461005a57806311fc6879146100965780633fafa127146100b85780635b4c9c59146100dc5780636aa37950146100fc578063d6ae6e691461011c575b600080fd5b34801561006657600080fd5b5061007a610075366004610a68565b61012f565b60405161008d9796959493929190610ad1565b60405180910390f35b3480156100a257600080fd5b506100b66100b1366004610a68565b610211565b005b3480156100c457600080fd5b506100ce60005481565b60405190815260200161008d565b3480156100e857600080fd5b506100b66100f7366004610b24565b6102e5565b34801561010857600080fd5b506100b6610117366004610b78565b610469565b6100b661012a366004610c4b565b610526565b600160208190526000918252604090912080549181015460028201546003830180546001600160a01b03958616959394929093169261016d90610c77565b80601f016020809104026020016040519081016040528092919081815260200182805461019990610c77565b80156101e65780601f106101bb576101008083540402835291602001916101e6565b820191906000526020600020905b8154815290600101906020018083116101c957829003601f168201915b5050505060048301546006909301549192916001600160a01b0381169150600160a01b900460ff1687565b600081815260016020526040902060060154600160a01b900460ff161561026f5760405162461bcd60e51b815260206004820152600d60248201526c105b1c9958591e48121a5c9959609a1b60448201526064015b60405180910390fd5b6000818152600160205260409020546001600160a01b031633146102c15760405162461bcd60e51b81526020600482015260096024820152683737ba1037bbb732b960b91b6044820152606401610266565b6000908152600160205260409020600601805460ff60a01b1916600160a01b179055565b600082815260016020526040902060060154600160a01b900460ff161561034e5760405162461bcd60e51b815260206004820152601c60248201527f41756469746f7220486972656420666f722074686973206175646974000000006044820152606401610266565b600081116103925760405162461bcd60e51b8152602060048201526011602482015270050726963652063616e6e6f74206265203607c1b6044820152606401610266565b60008281526001602090815260408083203384526005019091529020541561040c5760405162461bcd60e51b815260206004820152602760248201527f50726f706f73616c20616c726561647920676976656e20666f722074686973206044820152661c1c9bda9958dd60ca1b6064820152608401610266565b600082815260016020908152604080832033808552600590910183529281902084905580518581529182018490527fb821548eb38da7bc8bc43194037e17422c1585fb16743d4441ab2e8616408050910160405180910390a25050565b6000806000815461047990610cb1565b918290555060008181526001602081905260409091208054336001600160a01b03199182161782559181018890556002810180549092166001600160a01b038716179091559091506003016104ce8582610d26565b50600081815260016020908152604091829020600401849055815183815290810187905233917f09d8f65b8fc317a812f5fc866f6878e20c3205af821bca15737c229fc757305a910160405180910390a25050505050565b600082815260016020526040902060060154600160a01b900460ff161561057f5760405162461bcd60e51b815260206004820152600d60248201526c105b1c9958591e48121a5c9959609a1b6044820152606401610266565b6000828152600160205260409020546001600160a01b031633146105d15760405162461bcd60e51b81526020600482015260096024820152683737ba1037bbb732b960b91b6044820152606401610266565b60008281526001602090815260408083206001600160a01b03851684526005019091529020546106435760405162461bcd60e51b815260206004820152601e60248201527f4e6f2070726f706f73616c2066726f6d20676976656e2061756469746f7200006044820152606401610266565b60008281526001602052604090206006810180546001600160a81b0319166001600160a01b0380851691909117600160a01b17909155600290910154166106f45760008281526001602090815260408083206001600160a01b03851684526005019091529020543410156106ef5760405162461bcd60e51b81526020600482015260136024820152724d6f6e65792073656e742069732077726f6e6760681b6044820152606401610266565b61073a565b60008281526001602081815260408084206001600160a01b03808716865260058201845291852054948790529290915260029091015461073a929116903390849061079e565b60008281526001602090815260408083206001600160a01b03851680855260059091018352928190205481518681529283015233917fea2e6f1e9207075454383a7e7d5465ad29ad701ec8ef2d85172094a2d9950e37910160405180910390a35050565b604080516001600160a01b0385811660248301528416604482015260648082018490528251808303909101815260849091019091526020810180516001600160e01b03166323b872dd60e01b1790526107f89085906107fe565b50505050565b6000610853826040518060400160405280602081526020017f5361666545524332303a206c6f772d6c6576656c2063616c6c206661696c6564815250856001600160a01b03166108d89092919063ffffffff16565b90508051600014806108745750808060200190518101906108749190610de6565b6108d35760405162461bcd60e51b815260206004820152602a60248201527f5361666545524332303a204552433230206f7065726174696f6e20646964206e6044820152691bdd081cdd58d8d9595960b21b6064820152608401610266565b505050565b60606108e784846000856108ef565b949350505050565b6060824710156109505760405162461bcd60e51b815260206004820152602660248201527f416464726573733a20696e73756666696369656e742062616c616e636520666f6044820152651c8818d85b1b60d21b6064820152608401610266565b600080866001600160a01b0316858760405161096c9190610e0f565b60006040518083038185875af1925050503d80600081146109a9576040519150601f19603f3d011682016040523d82523d6000602084013e6109ae565b606091505b50915091506109bf878383876109ca565b979650505050505050565b60608315610a39578251600003610a32576001600160a01b0385163b610a325760405162461bcd60e51b815260206004820152601d60248201527f416464726573733a2063616c6c20746f206e6f6e2d636f6e74726163740000006044820152606401610266565b50816108e7565b6108e78383815115610a4e5781518083602001fd5b8060405162461bcd60e51b81526004016102669190610e2b565b600060208284031215610a7a57600080fd5b5035919050565b60005b83811015610a9c578181015183820152602001610a84565b50506000910152565b60008151808452610abd816020860160208601610a81565b601f01601f19169290920160200192915050565b600060018060a01b03808a168352886020840152808816604084015260e06060840152610b0160e0840188610aa5565b60808401969096529390931660a082015290151560c09091015250949350505050565b60008060408385031215610b3757600080fd5b50508035926020909101359150565b634e487b7160e01b600052604160045260246000fd5b80356001600160a01b0381168114610b7357600080fd5b919050565b60008060008060808587031215610b8e57600080fd5b84359350602085013567ffffffffffffffff80821115610bad57600080fd5b818701915087601f830112610bc157600080fd5b813581811115610bd357610bd3610b46565b604051601f8201601f19908116603f01168101908382118183101715610bfb57610bfb610b46565b816040528281528a6020848701011115610c1457600080fd5b826020860160208301376000602084830101528097505050505050610c3b60408601610b5c565b9396929550929360600135925050565b60008060408385031215610c5e57600080fd5b82359150610c6e60208401610b5c565b90509250929050565b600181811c90821680610c8b57607f821691505b602082108103610cab57634e487b7160e01b600052602260045260246000fd5b50919050565b600060018201610cd157634e487b7160e01b600052601160045260246000fd5b5060010190565b601f8211156108d357600081815260208120601f850160051c81016020861015610cff5750805b601f850160051c820191505b81811015610d1e57828155600101610d0b565b505050505050565b815167ffffffffffffffff811115610d4057610d40610b46565b610d5481610d4e8454610c77565b84610cd8565b602080601f831160018114610d895760008415610d715750858301515b600019600386901b1c1916600185901b178555610d1e565b600085815260208120601f198616915b82811015610db857888601518255948401946001909101908401610d99565b5085821015610dd65787850151600019600388901b60f8161c191681555b5050505050600190811b01905550565b600060208284031215610df857600080fd5b81518015158114610e0857600080fd5b9392505050565b60008251610e21818460208701610a81565b9190910192915050565b602081526000610e086020830184610aa556fea2646970667358221220e68ff628ca7e58be765a932adb78168e1d88316bd311201326e80ae7cf97a2e864736f6c63430008110033",
    "linkReferences": {}
  },
  "methodIdentifiers": {
    "cancelAudit(uint256)": "11fc6879",
    "hireAuditor(uint256,address)": "d6ae6e69",
    "projectId()": "3fafa127",
    "projects(uint256)": "107046bd",
    "propose(uint256,uint256)": "5b4c9c59",
    "requestAudit(uint256,string,address,uint256)": "6aa37950"
  },
  "id": 4
}